IP 192.168.1.101.38708 > 192.168.1.107.squid: Flags [S], seq 3616938686, win 29200, options [mss 1460,sackOK,TS val 3614013 ecr 0,nop,wscale 7], length 0
	0x0000:  4500 003c 3f83 4000 4006 7718 c0a8 0165  E..<?.@.@.w....e
	0x0010:  c0a8 016b 9734 0c38 d796 1abe 0000 0000  ...k.4.8........
	0x0020:  a002 7210 844f 0000 0204 05b4 0402 080a  ..r..O..........
	0x0030:  0037 253d 0000 0000 0103 0307            .7%=........
IP 192.168.1.107 > 192.168.1.101: ICMP host 192.168.1.107 unreachable - admin prohibited, length 68
	0x0000:  45c0 0058 ee9e 0000 4001 0726 c0a8 016b  E..X....@..&...k
	0x0010:  c0a8 0165 030a 8145 0000 0000 4500 003c  ...e...E....E..<
	0x0020:  3f83 4000 4006 7718 c0a8 0165 c0a8 016b  ?.@.@.w....e...k
	0x0030:  9734 0c38 d796 1abe 0000 0000 a002 7210  .4.8..........r.
	0x0040:  9699 0000 0204 05b4 0402 080a 0037 253d  .............7%=
	0x0050:  0000 0000 0103 0307                      ........
ARP, Request who-has 192.168.1.101 tell 192.168.1.107, length 46
	0x0000:  0001 0800 0604 0001 0800 278f a9aa c0a8  ..........'.....
	0x0010:  016b 0000 0000 0000 c0a8 0165 0000 0000  .k.........e....
	0x0020:  0000 0000 0000 0000 0000 0000 0000       ..............
ARP, Reply 192.168.1.101 is-at 08:00:27:d7:81:3d, length 28
	0x0000:  0001 0800 0604 0002 0800 27d7 813d c0a8  ..........'..=..
	0x0010:  0165 0800 278f a9aa c0a8 016b            .e..'......k
ARP, Reply 192.168.1.1 is-at ec:88:8f:23:97:b4, length 46
	0x0000:  0001 0800 0604 0002 ec88 8f23 97b4 c0a8  ...........#....
	0x0010:  0101 fc01 7c31 bde7 c0a8 0164 0000 0000  ....|1.....d....
	0x0020:  0000 0000 0000 0000 0000 0000 0000       ..............
IP 192.168.1.101.38710 > 192.168.1.107.squid: Flags [S], seq 2363534314, win 29200, options [mss 1460,sackOK,TS val 3622830 ecr 0,nop,wscale 7], length 0
	0x0000:  4500 003c ec44 4000 4006 ca56 c0a8 0165  E..<.D@.@..V...e
	0x0010:  c0a8 016b 9736 0c38 8ce0 abea 0000 0000  ...k.6.8........
	0x0020:  a002 7210 844f 0000 0204 05b4 0402 080a  ..r..O..........
	0x0030:  0037 47ae 0000 0000 0103 0307            .7G.........
IP 192.168.1.107 > 192.168.1.101: ICMP host 192.168.1.107 unreachable - admin prohibited, length 68
	0x0000:  45c0 0058 f7d1 0000 4001 fdf2 c0a8 016b  E..X....@......k
	0x0010:  c0a8 0165 030a 8145 0000 0000 4500 003c  ...e...E....E..<
	0x0020:  ec44 4000 4006 ca56 c0a8 0165 c0a8 016b  .D@.@..V...e...k
	0x0030:  9736 0c38 8ce0 abea 0000 0000 a002 7210  .6.8..........r.
	0x0040:  2db0 0000 0204 05b4 0402 080a 0037 47ae  -............7G.
	0x0050:  0000 0000 0103 0307                      ........
ARP, Request who-has 192.168.1.107 tell 192.168.1.101, length 28
	0x0000:  0001 0800 0604 0001 0800 27d7 813d c0a8  ..........'..=..
	0x0010:  0165 0000 0000 0000 c0a8 016b            .e.........k
ARP, Reply 192.168.1.107 is-at 08:00:27:8f:a9:aa, length 46
	0x0000:  0001 0800 0604 0002 0800 278f a9aa c0a8  ..........'.....
	0x0010:  016b 0800 27d7 813d c0a8 0165 0000 0000  .k..'..=...e....
	0x0020:  0000 0000 0000 0000 0000 0000 0000       ..............
ARP, Request who-has 192.168.1.1 tell 192.168.1.104, length 46
	0x0000:  0001 0800 0604 0001 b808 d7aa b743 c0a8  .............C..
	0x0010:  0168 0000 0000 0000 c0a8 0101 0000 0000  .h..............
	0x0020:  0000 0000 0000 0000 0000 0000 0000       ..............
ARP, Reply 192.168.1.1 is-at ec:88:8f:23:97:b4, length 46
	0x0000:  0001 0800 0604 0002 ec88 8f23 97b4 c0a8  ...........#....
	0x0010:  0101 fc01 7c31 bde7 c0a8 0164 0000 0000  ....|1.....d....
	0x0020:  0000 0000 0000 0000 0000 0000 0000       ..............

