IP 127.0.0.1.48608 > 127.0.0.1.telnet: Flags [S], seq 1820240289, win 43690, options [mss 65495,sackOK,TS val 2294164 ecr 0,nop,wscale 7], length 0
	0x0000:  4510 003c a835 4000 4006 9474 7f00 0001
	0x0010:  7f00 0001 bde0 0017 6c7e a9a1 0000 0000
	0x0020:  a002 aaaa fe30 0000 0204 ffd7 0402 080a
	0x0030:  0023 0194 0000 0000 0103 0307
IP 127.0.0.1.telnet > 127.0.0.1.48608: Flags [R.], seq 0, ack 1820240290, win 0, length 0
	0x0000:  4510 0028 0030 4000 4006 3c8e 7f00 0001
	0x0010:  7f00 0001 0017 bde0 0000 0000 6c7e a9a2
	0x0020:  5014 0000 ddb5 0000

